{
  "_format": "hh-sol-artifact-1",
  "contractName": "GLIPSale",
  "sourceName": "contracts/GLIPSale.sol",
  "abi": [
    {
      "inputs": [
        {
          "internalType": "address",
          "name": "_glip",
          "type": "address"
        },
        {
          "internalType": "uint256",
          "name": "_priceWeiPerToken",
          "type": "uint256"
        }
      ],
      "stateMutability": "nonpayable",
      "type": "constructor"
    },
    {
      "inputs": [],
      "name": "EnforcedPause",
      "type": "error"
    },
    {
      "inputs": [],
      "name": "ExpectedPause",
      "type": "error"
    },
    {
      "inputs": [
        {
          "internalType": "address",
          "name": "owner",
          "type": "address"
        }
      ],
      "name": "OwnableInvalidOwner",
      "type": "error"
    },
    {
      "inputs": [
        {
          "internalType": "address",
          "name": "account",
          "type": "address"
        }
      ],
      "name": "OwnableUnauthorizedAccount",
      "type": "error"
    },
    {
      "inputs": [],
      "name": "ReentrancyGuardReentrantCall",
      "type": "error"
    },
    {
      "anonymous": false,
      "inputs": [
        {
          "indexed": true,
          "internalType": "address",
          "name": "buyer",
          "type": "address"
        },
        {
          "indexed": false,
          "internalType": "uint256",
          "name": "ethIn",
          "type": "uint256"
        },
        {
          "indexed": false,
          "internalType": "uint256",
          "name": "glipOut",
          "type": "uint256"
        }
      ],
      "name": "Bought",
      "type": "event"
    },
    {
      "anonymous": false,
      "inputs": [
        {
          "indexed": true,
          "internalType": "address",
          "name": "previousOwner",
          "type": "address"
        },
        {
          "indexed": true,
          "internalType": "address",
          "name": "newOwner",
          "type": "address"
        }
      ],
      "name": "OwnershipTransferred",
      "type": "event"
    },
    {
      "anonymous": false,
      "inputs": [
        {
          "indexed": false,
          "internalType": "address",
          "name": "account",
          "type": "address"
        }
      ],
      "name": "Paused",
      "type": "event"
    },
    {
      "anonymous": false,
      "inputs": [
        {
          "indexed": false,
          "internalType": "uint256",
          "name": "oldPrice",
          "type": "uint256"
        },
        {
          "indexed": false,
          "internalType": "uint256",
          "name": "newPrice",
          "type": "uint256"
        }
      ],
      "name": "PriceUpdated",
      "type": "event"
    },
    {
      "anonymous": false,
      "inputs": [
        {
          "indexed": false,
          "internalType": "address",
          "name": "account",
          "type": "address"
        }
      ],
      "name": "Unpaused",
      "type": "event"
    },
    {
      "inputs": [],
      "name": "buy",
      "outputs": [],
      "stateMutability": "payable",
      "type": "function"
    },
    {
      "inputs": [
        {
          "internalType": "uint256",
          "name": "ethWei",
          "type": "uint256"
        }
      ],
      "name": "calcTokensForEth",
      "outputs": [
        {
          "internalType": "uint256",
          "name": "",
          "type": "uint256"
        }
      ],
      "stateMutability": "view",
      "type": "function"
    },
    {
      "inputs": [],
      "name": "glip",
      "outputs": [
        {
          "internalType": "contract IERC20",
          "name": "",
          "type": "address"
        }
      ],
      "stateMutability": "view",
      "type": "function"
    },
    {
      "inputs": [],
      "name": "owner",
      "outputs": [
        {
          "internalType": "address",
          "name": "",
          "type": "address"
        }
      ],
      "stateMutability": "view",
      "type": "function"
    },
    {
      "inputs": [],
      "name": "pause",
      "outputs": [],
      "stateMutability": "nonpayable",
      "type": "function"
    },
    {
      "inputs": [],
      "name": "paused",
      "outputs": [
        {
          "internalType": "bool",
          "name": "",
          "type": "bool"
        }
      ],
      "stateMutability": "view",
      "type": "function"
    },
    {
      "inputs": [],
      "name": "priceWeiPerToken",
      "outputs": [
        {
          "internalType": "uint256",
          "name": "",
          "type": "uint256"
        }
      ],
      "stateMutability": "view",
      "type": "function"
    },
    {
      "inputs": [],
      "name": "renounceOwnership",
      "outputs": [],
      "stateMutability": "nonpayable",
      "type": "function"
    },
    {
      "inputs": [
        {
          "internalType": "uint256",
          "name": "newPrice",
          "type": "uint256"
        }
      ],
      "name": "setPrice",
      "outputs": [],
      "stateMutability": "nonpayable",
      "type": "function"
    },
    {
      "inputs": [
        {
          "internalType": "address",
          "name": "newOwner",
          "type": "address"
        }
      ],
      "name": "transferOwnership",
      "outputs": [],
      "stateMutability": "nonpayable",
      "type": "function"
    },
    {
      "inputs": [],
      "name": "unpause",
      "outputs": [],
      "stateMutability": "nonpayable",
      "type": "function"
    },
    {
      "inputs": [
        {
          "internalType": "address payable",
          "name": "to",
          "type": "address"
        }
      ],
      "name": "withdrawETH",
      "outputs": [],
      "stateMutability": "nonpayable",
      "type": "function"
    },
    {
      "inputs": [
        {
          "internalType": "address",
          "name": "to",
          "type": "address"
        },
        {
          "internalType": "uint256",
          "name": "amount",
          "type": "uint256"
        }
      ],
      "name": "withdrawGLIP",
      "outputs": [],
      "stateMutability": "nonpayable",
      "type": "function"
    },
    {
      "stateMutability": "payable",
      "type": "receive"
    }
  ],
  "bytecode": "0x60a060405234801561000f575f80fd5b50604051610b9b380380610b9b83398101604081905261002e91610156565b338061005457604051631e4fbdf760e01b81525f60048201526024015b60405180910390fd5b61005d81610107565b505f805460ff60a01b19169055600180556001600160a01b0382166100b55760405162461bcd60e51b815260206004820152600e60248201526d474c49502061646472207a65726f60901b604482015260640161004b565b5f81116100f15760405162461bcd60e51b815260206004820152600a6024820152697072696365207a65726f60b01b604482015260640161004b565b6001600160a01b0390911660805260025561018d565b5f80546001600160a01b038381166001600160a01b0319831681178455604051919092169283917f8be0079c531659141344cd1fd0a4f28419497f9722a3daafe3b4186f6b6457e09190a35050565b5f8060408385031215610167575f80fd5b82516001600160a01b038116811461017d575f80fd5b6020939093015192949293505050565b6080516109e16101ba5f395f81816101f4015281816102d2015281816103a7015261064501526109e15ff3fe6080604052600436106100c2575f3560e01c80638da5cb5b1161007c578063b24c72f611610057578063b24c72f6146101e3578063bbabeb0714610216578063dbf09d6614610235578063f2fde38b1461024a575f80fd5b80638da5cb5b1461018c57806391b7f5ed146101bc578063a6f2ae3a146101db575f80fd5b806304138e6b146100d75780633f4ba83a146101095780635c975abb1461011d578063690d832014610145578063715018a6146101645780638456cb5914610178575f80fd5b366100d3576100d13334610269565b005b5f80fd5b3480156100e2575f80fd5b506100f66100f13660046108bc565b61049e565b6040519081526020015b60405180910390f35b348015610114575f80fd5b506100d16104c5565b348015610128575f80fd5b505f54600160a01b900460ff166040519015158152602001610100565b348015610150575f80fd5b506100d161015f3660046108e7565b6104d7565b34801561016f575f80fd5b506100d161054e565b348015610183575f80fd5b506100d161055f565b348015610197575f80fd5b505f546001600160a01b03165b6040516001600160a01b039091168152602001610100565b3480156101c7575f80fd5b506100d16101d63660046108bc565b61056f565b6100d16105f4565b3480156101ee575f80fd5b506101a47f000000000000000000000000000000000000000000000000000000000000000081565b348015610221575f80fd5b506100d1610230366004610909565b610617565b348015610240575f80fd5b506100f660025481565b348015610255575f80fd5b506100d16102643660046108e7565b6106f1565b5f81116102a65760405162461bcd60e51b81526020600482015260066024820152650dcde408aa8960d31b60448201526064015b60405180910390fd5b5f6102b08261049e565b6040516370a0823160e01b81523060048201529091505f906001600160a01b037f000000000000000000000000000000000000000000000000000000000000000016906370a0823190602401602060405180830381865afa158015610317573d5f803e3d5ffd5b505050506040513d601f19601f8201168201806040525081019061033b9190610933565b9050818110156103815760405162461bcd60e51b81526020600482015260116024820152700696e73756666696369656e7420474c495607c1b604482015260640161029d565b60405163a9059cbb60e01b81526001600160a01b038581166004830152602482018490527f0000000000000000000000000000000000000000000000000000000000000000169063a9059cbb906044016020604051808303815f875af11580156103ed573d5f803e3d5ffd5b505050506040513d601f19601f82011682018060405250810190610411919061094a565b6104545760405162461bcd60e51b815260206004820152601460248201527311d31254081d1c985b9cd9995c8819985a5b195960621b604482015260640161029d565b60408051848152602081018490526001600160a01b038616917fa9a40dec7a304e5915d11358b968c1e8d365992abf20f82285d1df1b30c8e24c910160405180910390a250505050565b6002545f906104b583670de0b6b3a7640000610969565b6104bf919061098c565b92915050565b6104cd61072e565b6104d561075a565b565b6104df61072e565b47806105165760405162461bcd60e51b81526020600482015260066024820152650dcde408aa8960d31b604482015260640161029d565b6040516001600160a01b0383169082156108fc029083905f818181858888f19350505050158015610549573d5f803e3d5ffd5b505050565b61055661072e565b6104d55f6107ae565b61056761072e565b6104d56107fd565b61057761072e565b5f81116105b35760405162461bcd60e51b815260206004820152600a6024820152697072696365207a65726f60b01b604482015260640161029d565b60025460408051918252602082018390527f945c1c4e99aa89f648fbfe3df471b916f719e16d960fcec0737d4d56bd696838910160405180910390a1600255565b6105fc61083f565b610604610869565b61060e3334610269565b6104d560018055565b61061f61072e565b60405163a9059cbb60e01b81526001600160a01b038381166004830152602482018390527f0000000000000000000000000000000000000000000000000000000000000000169063a9059cbb906044016020604051808303815f875af115801561068b573d5f803e3d5ffd5b505050506040513d601f19601f820116820180604052508101906106af919061094a565b6106ed5760405162461bcd60e51b815260206004820152600f60248201526e1dda5d1a191c985dc819985a5b1959608a1b604482015260640161029d565b5050565b6106f961072e565b6001600160a01b03811661072257604051631e4fbdf760e01b81525f600482015260240161029d565b61072b816107ae565b50565b5f546001600160a01b031633146104d55760405163118cdaa760e01b815233600482015260240161029d565b610762610893565b5f805460ff60a01b191690557f5db9ee0a495bf2e6ff9c91a7834c1ba4fdd244a5e8aa4e537bd38aeae4b073aa335b6040516001600160a01b03909116815260200160405180910390a1565b5f80546001600160a01b038381166001600160a01b0319831681178455604051919092169283917f8be0079c531659141344cd1fd0a4f28419497f9722a3daafe3b4186f6b6457e09190a35050565b61080561083f565b5f805460ff60a01b1916600160a01b1790557f62e78cea01bee320cd4e420270b5ea74000d11b0c9f74754ebdbfc544b05a2586107913390565b5f54600160a01b900460ff16156104d55760405163d93c066560e01b815260040160405180910390fd5b60026001540361088c57604051633ee5aeb560e01b815260040160405180910390fd5b6002600155565b5f54600160a01b900460ff166104d557604051638dfc202b60e01b815260040160405180910390fd5b5f602082840312156108cc575f80fd5b5035919050565b6001600160a01b038116811461072b575f80fd5b5f602082840312156108f7575f80fd5b8135610902816108d3565b9392505050565b5f806040838503121561091a575f80fd5b8235610925816108d3565b946020939093013593505050565b5f60208284031215610943575f80fd5b5051919050565b5f6020828403121561095a575f80fd5b81518015158114610902575f80fd5b80820281158282048414176104bf57634e487b7160e01b5f52601160045260245ffd5b5f826109a657634e487b7160e01b5f52601260045260245ffd5b50049056fea2646970667358221220254eaa95b3ebb1a40674faec8c1015728f91f7ed1056c101548879c49094506364736f6c63430008140033",
  "linkReferences": {},
  "deployedLinkReferences": {}
}